{
    "_format": "hh-sol-artifact-1",
    "contractName": "MerkleWhitelist",
    "sourceName": "contracts/C.sol",
    "abi": [
        {
            "inputs": [
                {
                    "internalType": "bytes32[]",
                    "name": "proof",
                    "type": "bytes32[]"
                }
            ],
            "name": "merkleWhitelist",
            "outputs": [],
            "stateMutability": "view",
            "type": "function"
        }
    ],
    "bytecode": "0x60806040527f9140c36cb53e08f356aefe3319b0272b73c58c5670c3e8173d94666675449a7d60001b60005534801561003757600080fd5b50610513806100476000396000f3fe608060405234801561001057600080fd5b506004361061002b5760003560e01c8063207d861814610030575b600080fd5b61004a60048036038101906100459190610225565b61004c565b005b60003360405160200161005f91906102a0565b60405160208183030381529060405280519060200120905060005461008483836100c8565b146100c4576040517f08c379a00000000000000000000000000000000000000000000000000000000081526004016100bb906102bb565b60405180910390fd5b5050565b60008082905060005b8451811015610158576000858281518110610115577f4e487b7100000000000000000000000000000000000000000000000000000000600052603260045260246000fd5b60200260200101519050808311610137576101308382610163565b9250610144565b6101418184610163565b92505b508080610150906103b4565b9150506100d1565b508091505092915050565b600082600052816020526040600020905092915050565b600061018d61018884610300565b6102db565b905080838252602082019050828560208602820111156101ac57600080fd5b60005b858110156101dc57816101c28882610210565b8452602084019350602083019250506001810190506101af565b5050509392505050565b600082601f8301126101f757600080fd5b813561020784826020860161017a565b91505092915050565b60008135905061021f816104c6565b92915050565b60006020828403121561023757600080fd5b600082013567ffffffffffffffff81111561025157600080fd5b61025d848285016101e6565b91505092915050565b6102776102728261033d565b6103fd565b82525050565b600061028a60208361032c565b91506102958261049d565b602082019050919050565b60006102ac8284610266565b60148201915081905092915050565b600060208201905081810360008301526102d48161027d565b9050919050565b60006102e56102f6565b90506102f18282610383565b919050565b6000604051905090565b600067ffffffffffffffff82111561031b5761031a610450565b5b602082029050602081019050919050565b600082825260208201905092915050565b600061034882610359565b9050919050565b6000819050919050565b600073ffffffffffffffffffffffffffffffffffffffff82169050919050565b6000819050919050565b61038c8261047f565b810181811067ffffffffffffffff821117156103ab576103aa610450565b5b80604052505050565b60006103bf82610379565b91507fffffffffffffffffffffffffffffffffffffffffffffffffffffffffffffffff8214156103f2576103f1610421565b5b600182019050919050565b60006104088261040f565b9050919050565b600061041a82610490565b9050919050565b7f4e487b7100000000000000000000000000000000000000000000000000000000600052601160045260246000fd5b7f4e487b7100000000000000000000000000000000000000000000000000000000600052604160045260246000fd5b6000601f19601f8301169050919050565b60008160601b9050919050565b7f4d65726b6c652050726f6f6620766572696669636174696f6e206661696c6564600082015250565b6104cf8161034f565b81146104da57600080fd5b5056fea2646970667358221220f0bedb88881a95a4b5bbc4a1712e844d2d79894c862a6049729986ffde6bdd1b64736f6c63430008010033",
    "linkReferences": {},
    "deployedLinkReferences": {}
}